:100000000C9468020C9490020C9490020C94900250
:100010000C9490020C9490020C9490020C94ED17A6
:100020000C9490020C9490020C9490020C94900208
:100030000C9490020C9490020C9490020C949002F8
:100040000C943B190C9490020C948A1B0C94DC1BAE
:100050000C9490020C9490020C9490020C949002D8
:100060000C94E30C0C94900208000000BE9224490A
:10007000123EABAAAA2ABECDCCCC4C3E00000080DA
:10008000BEABAAAAAA3E00000000BF000000803F4D
:100090000000000000084178D3BB4387D1133D190D
:1000A0000E3CC3BD4282AD2B3E68EC8276BED98F3A
:1000B000E1A93E4C80EFFFBE01C4FF7F3F0000007E
:1000C00000002B2D2D2D2D2D2D2D2D2D2D2D2D2DBC
:1000D0002D2D2D2D2D2D2D2D2D2D2D2D2D2D2D2D50
:1000E0002D2D2D2D2D2D2D2D2B007C2020206F66CC
:1000F00020746865205341494E54434F4E2032309E
:10010000313420436F6D6D69747465652120202042
:100110007C007C205468616E6B7320746F20547275
:100120006F79204A657373757020616E64207468FE
:1001300065207265737420207C007C2020202020A4
:1001400020202020202020202020202020202020AF
:10015000202020202020202020202020202020209F
:100160007C007C20204A6F6E617468616E204B6158
:100170007272617320202020202020202020202047
:1001800020202020202020207C007C20204D617415
:1001900074204C6F72696D65722020202020202011
:1001A000202020202020202020202020202020204F
:1001B0007C007C20204B6C696E7420486F6C6D65F0
:1001C00073202020202020202020202020202020DC
:1001D00020202020202020207C007C20204C756BBB
:1001E00065204A656E6B696E7320202020202020D8
:1001F00020202020202020202020202020202020FF
:100200007C002B2D2D2D2D2D2D2D2D2D2D2D2D2DFE
:100210002D2D2D2D2D2D2D2D2D2D2D2D2D2D2D2D0E
:100220002D2D2D2D2D2D2D2D2B007C205341494E74
:1002300054434F4E2032303134204861636B207478
:100240006865204261646765205465616D202020E7
:100250007C002B2D2D2D2D2D2D2D2D2D2D2D2D2DAE
:100260002D2D2D2D2D2D2D2D2D2D2D2D2D2D2D2DBE
:100270002D2D2D2D2D2D2D2D2B002B2D2D2D2D2DDF
:100280002D2D2D2D2D2D2D2D2D2D2D2D2D2D2D2D9E
:100290002D2D2D2D2D2D2D2D2D2D2D2D2D2D2B00BD
:1002A000202020202020202020202020207C002B07
:1002B0002D2D2D2D2D2D2D2D2D2D2D2D2D2D2D2D6E
:1002C0002D2D2D2D2D2D2D2D2D2D2D2D2D2D2D2D5E
:1002D0002D2D2D2B002B2D2D2D2D2D2D2D2D2D2D7F
:1002E0002D2D2D2D2D2D2D2D2D2D2D2D2D2D2D2D3E
:1002F0002D2D2D2D2D2D2D2D2D2B002B2D2D2D2D5F
:100300002D2D2D2D2D2D2D2D2D2D2D2D2D2D2D2D1D
:100310002D2D2D2D2D2D2D2D2D2D2D2D2D2D2D2B0F
:1003200000202020202020202020202020207C00B1
:100330002B2D2D2D2D2D2D2D2D2D2D2D2D2D2D2DEF
:100340002D2D2D2D2D2D2D2D2D2D2D2D2D2D2D2DDD
:100350002D2D2D2D2B00202020202020202020207E
:100360002020207C002B2D2D2D2D2D2D2D2D2D2DC4
:100370002D2D2D2D2D2D2D2D2D2D2D2D2D2D2D2DAD
:100380002D2D2D2D2D2D2D2D2D2B0020202020200D
:1003900020202020202020207C002B2D2D2D2D2DD5
:1003A0002D2D2D2D2D2D2D2D2D2D2D2D2D2D2D2D7D
:1003B0002D2D2D2D2D2D2D2D2D2D2D2D2D2D2D2D6D
:1003C0002B00202020202020202020202020202042
:1003D000207C002B2D2D2D2D2D2D2D2D2D2D2D2D3A
:1003E0002D2D2D2D2D2D2D2D2D2D2D2D2D2D2D2D3D
:1003F0002D2D2D2D2D2D2D2D2D2B007C20205341ED
:10040000494E54434F4E2032303134204861636BA3
:100410002074686520426164676520203130302097
:10042000207C002B2D2D2D2D2D2D2D2D2D2D2D2DE9
:100430002D2D2D2D2D2D2D2D2D2D2D2D2D2D2D2DEC
:100440002D2D2D2D2D2D2D2D2D2B000048423530FD
:10045000303A20000048423330303A2000484232DF
:1004600030303A200048423130303A20000000005D
:1004700000240027002A0000000000250028002B8F
:1004800000000000002300260029000404040404E6
:100490000404040202020202020303030303030131
:1004A0000204081020408001020408102001020408
:1004B00008102000000007000201000003040600ED
:1004C000000000000000000027047F0B4B1D2004EB
:1004D00011241FBECFEFD8E0DEBFCDBF15E0A0E0F6
:1004E000B1E0EEE0FDE402C005900D92AC3AB10738
:1004F000D9F718E0ACEAB5E001C01D92AE30B10703
:10050000E1F714E0CEECD4E004C02297FE010E9493
:100510003F26C83CD107C9F70E94A21D0C947A2639
:100520000C940000EF92FF920F93DF93CF93CDB71F
:10053000DEB760970FB6F894DEBF0FBECDBFA82F11
:10054000002309F461C07E010894E11CF11C88E0DD
:10055000F70111928A95E9F729833A834B835C83EB
:100560006D837E83AF83988780E2801BE82FFF270F
:10057000E7FDF0954D815E816F817885181684F0D6
:100580001D861E861F86188A882799278E1B9F0B1B
:1005900004C076956795579547958A95D2F728C0F8
:1005A000202F332727FD3095DB01CA01022E04C01E
:1005B000B695A795979587950A94D2F78D879E87CC
:1005C000AF87B88B04C0440F551F661F771FEA958D
:1005D000D2F789819A81AB81BC8104C0B695A79579
:1005E000979587952A95D2F7482B592B6A2B7B2B09
:1005F00049875A876B877C8729853A854B855C8537
:100600006D857E85AF8598898A2F60960FB6F894A0
:10061000DEBF0FBECDBFCF91DF910F91FF90EF9066
:100620000895EF92FF920F93DF93CF93CDB7DEB78C
:1006300060970FB6F894DEBF0FBECDBFA82F002382
:1006400009F461C07E010894E11CF11C88E0F70107
:1006500011928A95E9F729833A834B835C836D83F2
:100660007E83AF83988780E2801BE82FFF27E7FD1A
:10067000F09549815A816B817C81181684F0198626
:100680001A861B861C86882799278E1B9F0B04C001
:10069000440F551F661F771F8A95D2F728C0202F59
:1006A000332727FD3095DB01CA01022E04C0880FD5
:1006B000991FAA1FBB1F0A94D2F789879A87AB8715
:1006C000BC8704C07695679557954795EA95D2F70C
:1006D0008D819E81AF81B88504C0880F991FAA1FA4
:1006E000BB1F2A95D2F7482B592B6A2B7B2B4D87A2
:1006F0005E876F87788B29853A854B855C856D850C
:100700007E85AF8598898A2F60960FB6F894DEBFF4
:100710000FBECDBFCF91DF910F91FF90EF90089565
:10072000A0E0B0E0E6E9F3E00C944B26EC01A880F1
:10073000B980CA80DB80A114B104C104D10441F4A2
:1007400084E2A82E89EDB82E8BE5C82E87E0D82E3E
:10075000C601B5012DE133EF41E050E00E940E26C5
:1007600027EA31E440E050E00E94AE257B018C0195
:10077000C601B5012DE133EF41E050E00E940E26A5
:10078000CA01B9012CEE34EF4FEF5FEF0E94AE25A6
:100790006E0D7F1D801F911F97FF04C06150704038
:1007A00080409048688379838A839B839B01AC0156
:1007B0005F77B901CA01CDB7DEB7EAE00C946726CE
:1007C0000E949003089585ED94E00E94900308959F
:1007D0006093D5047093D6048093D7049093D80483
:1007E0000895FB01DC0102C001900D924150504080
:1007F000D8F70895FB01DC0101900D920020E1F78C
:1008000008958130910591F46F5F7F4FC1F460913D
:10081000DD047091DE048CEA95E00E94F80E8CEB0A
:1008200095E060E071E00E94E0200895892B39F4A2
:100830006F5F7F4F21F48CEB95E00E94F9200895C3
:1008400080E090E06FEF7FEF0E940104089581E067
:1008500090E06FEF7FEF0E9401040895FF920F93E5
:100860001F938C01F62E8EE096E0B8010E94450B96
:100870008EE096E06F2D0E94C70B8EE096E00E94FE
:100880000A0C8EE096E0B80141E050E00E941B0C9B
:100890008EE096E00E944F0B892B11F48FEF04C07D
:1008A0008EE096E00E94580B1F910F91FF900895E3
:1008B000EF92FF920F931F93282FF62EE42E0EE057
:1008C00016E0C801622F0E943B0BC8016F2D0E94E9
:1008D000C70BC8016E2D0E94C70BC8010E940A0CED
:1008E0001F910F91FF90EF900895AF92BF92CF921A
:1008F000DF92EF92FF920F931F93AA2797FDA09587
:10090000BA2FBC01CD010E9419249B01AC0160E00B
:1009100070E080E894E40E947E2320E030E040E82C
:100920005FE30E9415232091D9043091DA044091AD
:10093000DB045091DC040E9412250E94E6230E94F1
:1009400019240E94D2247B018C0123E73FE745E76D
:1009500059E30E9412252BEE3FEF43E95AE30E9430
:1009600016235B016C01C801B70129E537E44CEBA4
:1009700053E30E941225A80197010E941225A801A5
:1009800097010E9412259B01AC01C601B5010E948E
:1009900016239B01AC0160E070E080E89FE30E94B9
:1009A0007E2323E333E948E853E40E94152320E043
:1009B00030E040E151E40E94122520E030E040EABE
:1009C00050E40E947E2320E030E040E052E40E94A8
:1009D00016231F910F91FF90EF90DF90CF90BF9063
:1009E000AF90089588EE97E040E052EC61E070E04F
:1009F0000E94171C8EE096E00E941F0C86E06FEFAD
:100A000070E00E94431A89E06FEF70E00E94431A81
:100A10008AE06FEF70E00E94431A8BE06FEF70E0A6
:100A20000E94431A08950F931F9308EE17E0C80120
:100A30006BE10E940B1DC80161E071E00E943A1F4A
:100A4000C8016BE10E940B1DC80165E071E00E94C6
:100A50003A1F1F910F910895EF92FF920F931F93EA
:100A60000E94130508EE17E088E0E82E81E0F82EDA
:100A7000C801B7010E942420C80160E371E00E9410
:100A80002420C801B7010E942420C80168E571E054
:100A90000E942420C801B7010E94242068E873E165
:100AA00080E090E00E94831981E01F910F91FF90F8
:100AB000EF900895EF92FF920F931F930E941305FA
:100AC0006091C6057091C70588E896E00E94920E75
:100AD000182F6091E0047091E10488E896E00E948C
:100AE000920EE82E6091E2047091E30488E896E0AB
:100AF0000E94920EF82E6091E4047091E50488E85B
:100B000096E00E94920E082F6091E6047091E7042F
:100B100088E896E00E94920E88EE97E068E071E027
:100B20000E94242088EE97E060E871E00E94242073
:100B300088EE97E068E071E00E94242088EE97E05C
:100B400068EA71E00E942420112331F088EE97E0DA
:100B500060ED71E00E942420EE2031F088EE97E0F5
:100B600068EF71E00E942420FF2031F088EE97E0CA
:100B700060E272E00E942420002331F088EE97E0CA
:100B800068E472E00E94242088EE97E060E772E05B
:100B90000E94242088EE97E068E972E00E942420F9
:100BA00088EE97E060EC72E00E94242088EE97E0E7
:100BB00068E071E00E9424201F910F91FF90EF9058
:100BC00008950F931F930E94130508EE17E0C801C4
:100BD00062E572E00E94281EC8016AE272E00E948B
:100BE000281EC80162E072E00E94281EC8016AED5A
:100BF00071E00E94281EC80162EB71E00E94281E6D
:100C0000C8016AE871E00E94281EC80162E671E02E
:100C10000E94281EC8016AE371E00E94281EC801D4
:100C200062E171E00E94281EC8016AEE70E00E9435
:100C3000281EC80162EC70E00E94281E68E873E17B
:100C400080E090E00E9483190E945A051F910F9145
:100C500008950F931F93CF93DF930E94130588EE9F
:100C600097E065ED72E00E94281E88EE97E068EE3E
:100C700072E00E94242088EE97E06FEA72E00E9402
:100C8000281E88EE97E06EE073E00E943A1FC2E6ED
:100C9000D5E06091F0048881682788EE97E00E9493
:100CA000001E229685E0CE37D80799F788EE97E0A8
:100CB00060EA72E00E94281E88EE97E06AE772E020
:100CC0000E94281E0091E6041091E70461E070E0A4
:100CD00080E090E020E031E040E050E00E945920C8
:100CE000462F88E896E0B8010E94990E68E873E103
:100CF00080E090E00E9483190E945A05DF91CF9115
:100D00001F910F9108950F931F93CF93DF930E942C
:100D1000130588EE97E068E173E00E94242088EED6
:100D200097E06EE373E00E94242088EE97E068E18C
:100D300073E00E94242088EE97E06EE073E00E944A
:100D40003A1FC6E4D5E06091EE048881682788EEFA
:100D500097E00E94001E229685E0C236D80799F7D8
:100D600088EE97E061E273E00E94281E88EE97E02B
:100D70006BEF72E00E94281E0091E4041091E504DC
:100D800061E070E080E090E020E031E040E050E0A1
:100D90000E945920462F88E896E0B8010E94990EDB
:100DA00068E873E180E090E00E9483190E945A0590
:100DB000DF91CF911F910F9108950F931F93CF93C0
:100DC000DF930E94130588EE97E068E173E00E94CC
:100DD000242088EE97E064E673E00E94242088EEE9
:100DE00097E068E173E00E94242088EE97E06EE0CF
:100DF00073E00E943A1FCAE2D5E06091EC0488815A
:100E0000682788EE97E00E94001E229685E0C6348F
:100E1000D80799F788EE97E066E573E00E94281EF0
:100E200088EE97E060E373E00E94281E0091E204E0
:100E30001091E30461E070E080E090E020E031E0B8
:100E400040E050E00E945920462F88E896E0B80123
:100E50000E94990E68E873E180E090E00E94831997
:100E60000E945A05DF91CF911F910F9108950F9322
:100E70001F93CF93DF930E94130588EE97E068E1FC
:100E800073E00E94242088EE97E06AE873E00E94F5
:100E9000242088EE97E068E173E00E94242088EE29
:100EA00097E06EE073E00E943A1FCEE0D5E06091DB
:100EB000EA048881682788EE97E00E94001E229647
:100EC00085E0CA32D80799F788EE97E06BE873E0BF
:100ED0000E94281E88EE97E065E673E00E94281EB7
:100EE0000091E0041091E10461E070E080E090E0A6
:100EF00020E031E040E050E00E945920462F88E891
:100F000096E0B8010E94990E68E873E180E090E0F5
:100F10000E9483190E945A05DF91CF911F910F9172
:100F200008950F931F93CF93DF930E94130588EECC
:100F300097E063E274E00E94281E88EE97E06BEF72
:100F400073E00E94281E88EE97E063ED73E00E9434
:100F5000281E88EE97E06EE073E00E943A1FC2EF11
:100F6000D4E06091E8048881682788EE97E00E94C9
:100F7000001E229685E0CE30D80799F788EE97E0DC
:100F800062EC73E00E94281E88EE97E06AE973E045
:100F90000E94281E0091C6051091C70561E070E00F
:100FA00080E090E020E031E040E050E00E945920F5
:100FB000462F88E896E0B8010E94990E68E873E130
:100FC00080E090E00E9483190E945A05DF91CF9142
:100FD0001F910F9108950F931F93CF93DF930E945A
:100FE000130588EE97E068E173E00E94242088EE04
:100FF00097E068EE72E00E94242088EE97E068E1B6
:1010000073E00E94242088EE97E060EB73E00E947A
:10101000242088EE97E068E173E00E942420C0E07D
:10102000D0E0CE0163E070E00E94D925FC01EE0F14
:10103000FF1FE258FA4F80E56C2F40810E94580450
:101040006AE070E080E090E00E9483192196CC373E
:10105000D10539F70E94130588EE97E068E173E047
:101060000E94242088EE97E068EE72E00E9424201F
:1010700088EE97E068E173E00E94242088EE97E014
:1010800066ED73E00E94242088EE97E068E173E04B
:101090000E94242000E010E0C0E0D0E080E590E075
:1010A000BE010E942E04682F080F111D88EE97E0E4
:1010B00040E150E00E94E81E2196C330D10571F74F
:1010C00068EE73E080E090E00E94831980E00D34C8
:1010D000110509F481E0DF91CF911F910F910895DF
:1010E000EF92FF920F931F930E9413058FE00E94CF
:1010F000211A0E9475047B018C0188EE97E068E15B
:1011000073E00E94242088EE97E06EE373E00E9473
:10111000242088EE97E068E173E00E94242088EEA6
:1011200097E06CEF73E00E943A1F88EE97E0B801F9
:10113000A70121E030E00E94212088EE97E062E1E3
:1011400074E00E94242088EE97E068E173E00E943A
:101150002420C801B70120E030E040EB52E40E94B7
:10116000C924882384F0C801B70120E030E048ECAE
:1011700052E40E947A23181634F081E01F910F91F7
:10118000FF90EF9008956AEF70E080E090E00E9499
:101190008319AACF0F931F93CF93DF930E94130558
:1011A00088EE97E068E173E00E94242088EE97E0E3
:1011B00064E673E00E94242088EE97E068E173E023
:1011C0000E94242088EE97E06FE174E00E942420C2
:1011D00088EE97E068E173E00E942420C0E0D0E050
:1011E0008DEA95E04DEA5EED60E070E020E130E0F0
:1011F0000E94EC186AEF70E080E090E00E94831992
:101200008DEA95E04EED50EC60E070E020E130E0DA
:101210000E94EC186AEF70E080E090E00E94831971
:101220002196C530D105E1F664EF71E080E090E0F1
:101230000E9483190E94130588EE97E068E173E02D
:101240000E94242088EE97E064E673E00E94242048
:1012500088EE97E068E173E00E94242088EE97E032
:1012600065E474E00E94242088EE97E068E173E072
:101270000E9424208CEA95E00E948F188CEA95E069
:101280006EEA75E00E946417892BC1F30091B205E4
:101290001091B30588EE97E0B80140E150E00E945C
:1012A000CB1E0F5E1E4B31F481E0DF91CF911F9179
:1012B0000F9108958CEA95E00E94FD0EDFCFCF9349
:1012C000DF930E94130588EE97E068E173E00E94C7
:1012D000242088EE97E06AE873E00E94242088EEDC
:1012E00097E068E173E00E94242088EE97E06BE6C7
:1012F00074E00E94242088EE97E068E173E00E9489
:1013000024208CEA95E00E948F188CEA95E06EEA22
:1013100075E00E946417892BC1F3C091B205D0918A
:10132000B3058FEFCF3FD807E1F08091C2059091D0
:10133000C30501969093C3058093C205409754F06E
:1013400088EE97E061E974E00E9424201092C305C2
:101350001092C205CF5FD04C21F481E0DF91CF9194
:1013600008958CEA95E00E94FD0ECFCFDF92EF92B8
:10137000FF920F931F93CF93DF930E941305609109
:10138000C6057091C70588E896E00E94920E182F56
:101390006091E0047091E10488E896E00E94920E6A
:1013A000082F6091E2047091E30488E896E00E94BF
:1013B000920EF82E6091E4047091E50488E896E0BE
:1013C0000E94920EE82E6091E6047091E70488E88E
:1013D00096E00E94920ED82E88EE97E068E071E0C9
:1013E0000E94242088EE97E067E974E00E942420A0
:1013F00088EE97E068E071E00E9424201123D9F084
:1014000088EE97E065E674E00E94DD1DC2EFD4E04F
:101410006091E8048881682788EE97E00E94001EAA
:10142000229685E0CE30D80799F788EE97E060E005
:1014300071E00E9424200023D9F088EE97E06DE54A
:1014400074E00E94DD1DCEE0D5E06091EA04888161
:10145000682788EE97E00E94001E229685E0CA3237
:10146000D80799F788EE97E060E071E00E942420A9
:10147000FF20D9F088EE97E065E574E00E94DD1D5D
:10148000CAE2D5E06091EC048881682788EE97E095
:101490000E94001E229685E0C634D80799F788EE90
:1014A00097E060E071E00E942420EE20D9F088EE01
:1014B00097E06FEB74E00E943A1FC6E4D5E06091BC
:1014C000EE048881682788EE97E00E94001E22962D
:1014D00085E0C236D80799F788EE97E064E574E0B6
:1014E0000E94281EDD20D9F088EE97E06CE474E0BD
:1014F0000E94DD1DC2E6D5E06091F0048881682776
:1015000088EE97E00E94001E229685E0CE37D8072D
:1015100099F788EE97E06BE474E00E94281E68E873
:1015200073E180E090E00E9483190E945A05DF91E8
:10153000CF911F910F91FF90EF90DF900895EF9260
:10154000FF920F931F938091DF04882321F00E9464
:101550005A051092DF0488EE97E00E949E1C181630
:1015600019060CF083C088EE97E00E94D21C90937D
:10157000C5058093C4056091C6057091C70588E8CC
:1015800096E00E94920E182F6091E0047091E104A1
:1015900088E896E00E94920E082F6091E204709114
:1015A000E30488E896E00E94920EF82E6091E4042D
:1015B0007091E50488E896E00E94920EE82E8091F2
:1015C000C4059091C505C19731F40E942C0588236C
:1015D00011F00E9491078091C4059091C505C297B2
:1015E00041F4112331F00E945F09882311F00E9419
:1015F00037078091C4059091C505C39741F4002336
:1016000031F00E94CA08882311F00E94DD06809103
:10161000C4059091C505C49741F4FF2031F00E94A4
:101620007008882311F00E9483068091C405909170
:10163000C505C59759F4EE2049F00E94EB078823B1
:1016400019F00E94290602C00E945A058091C40523
:101650009091C505C99711F40E94B6098091C405FF
:101660009091C505C09711F40E94E1051F910F915B
:10167000FF90EF90089581E080930D066093EA0556
:1016800010920B0610920C06089581E080930D06CF
:101690006093EA0510920B0610920C0608952091B3
:1016A000E90530E08091E805281B3109C90108955A
:1016B0004091E8058091E905481718F02FEF3FEFBA
:1016C0000AC0E42FF0E0E853FA4F8081282F30E081
:1016D0004F5F4093E805C9010895E091E8058091C6
:1016E000E905E81718F0EFEFFFEF06C0F0E0E85368
:1016F000FA4F8081E82FF0E0CF010895089510920D
:1017000011061092100688EE93E0A0E0B0E08093FE
:10171000120690931306A0931406B09315068FE853
:1017200095E090930F0680930E060895CF92DF9276
:10173000EF92FF920F931F93CF93DF937C016B0186
:101740008A0180910D068823A1F0C0E0D0E00DC091
:10175000D701ED91FC91D601AC0FBD1F0190F08136
:10176000E02DC7016C9109952196C017D10780F330
:1017700004C0CB01642F0E94C80CC801DF91CF9137
:101780001F910F91FF90EF90DF90CF900895DF931E
:10179000CF930F92CDB7DEB7FC01698380910D0620
:1017A0008823C9F080910C06803238F081E090E007
:1017B0009383828320E030E015C080910B06E82FF0
:1017C000F0E0E551FA4F998190838F5F80930B068B
:1017D00080930C0605C0CE01019661E00E94C80C02
:1017E00021E030E0C9010F90CF91DF9108950F9370
:1017F000062F8091EA056BEE75E040910C0621E022
:101800000E94730C10920B0610920C0610920D069B
:101810000F91089561E00E94F70B0895413208F09E
:1018200040E2862F68EC75E00E942A0C1092E805D1
:101830008093E905089521E00E940E0C089510920E
:10184000E8051092E90510920B0610920C060E9412
:10185000740E0895382F413210F040E042C080915C
:101860001A068823E1F791E090931A0620931C064C
:101870008FEF8093870610924206415040934306B3
:101880004F5F90931B0680911B06330F832B809331
:101890001B0680911D06813041F410921D06809137
:1018A0001B068093BB0085EC01C085EE8093BC00D5
:1018B00080911A068130E1F380914206841710F47A
:1018C0004091420620E030E00AC0FB01E20FF31F26
:1018D000D901AE5DB94F8C9180832F5F3F4F2417A4
:1018E000A0F3842F08950F931F93582F122F413286
:1018F00010F081E04AC080911A068823E1F782E067
:1019000080931A0600931C068FEF8093870610922F
:10191000420640934306A2E2B6E0FB0102C0819179
:101920008D938E2F861B8417D0F310921B06809107
:101930001B06550F852B80931B0680911D06813059
:1019400041F410921D0680911B068093BB0085EC2C
:1019500001C085EE8093BC00112321F080911A060E
:101960008230E1F3809187068F3F11F480E00DC053
:1019700080918706803211F482E007C0809187064B
:10198000803311F084E001C083E01F910F9108952E
:10199000482F613210F081E0089580911A0684305A
:1019A00011F082E0089560936506A4E4B6E0842F08
:1019B0009C01F90102C081918D938E2F841B8617A3
:1019C000D0F380E008951F920F920FB60F9211246A
:1019D0002F933F934F935F936F937F938F939F9337
:1019E000AF93BF93EF93FF938091B90090E0887F0E
:1019F00090708036910509F4F2C081369105CCF5DE
:101A00008832910509F47BC089329105B4F48031A4
:101A1000910509F46FC0813191053CF4009709F4F8
:101A200047C1089709F04FC165C08831910509F495
:101A300066C0809709F047C182C08034910509F4DF
:101A4000A4C08134910544F48033910509F482C027
:101A5000C89709F038C189C08035910509F489C05B
:101A60008835910509F496C08834910509F02BC199
:101A7000AEC08839910509F413C189399105ECF498
:101A80008837910509F4ABC0893791054CF4883645
:101A9000910509F4A4C08037910509F014C19FC0D5
:101AA0008838910509F4FCC08039910509F49DC07E
:101AB0008038910509F007C198C0803B910509F471
:101AC000C6C0813B91054CF4803A910509F49FC052
:101AD000883A910509F0F7C0BAC0803C910509F435
:101AE000E3C0883C910509F4DFC0883B910509F00B
:101AF000EAC0C2C080911B068093BB00CFC090910A
:101B0000420680914306981768F490914206E92FA7
:101B1000F0E0EE5DF94F80818093BB009F5F909372
:101B20004206BCC080911C06882309F44BC085ED99
:101B30008093BC008091BC0084FDFCCFC2C080E2D9
:101B40008093870685ED8093BC008091BC0084FD66
:101B5000FCCFB7C080E38093870685ED8093BC00FF
:101B60008091BC0084FDFCCFACC088E380938706E5
:101B70009BC0809142069091BB00E82FF0E0EE5DA3
:101B8000F94F90838F5F8093420690914206809137
:101B9000430682C0809142069091BB00E82FF0E09E
:101BA000EE5DF94F90838F5F8093420680911C0613
:101BB000882341F085ED8093BC008091BC0084FDBA
:101BC000FCCF7FC081E080931D0684EA6EC085ED66
:101BD0008093BC008091BC0084FDFCCF72C083E088
:101BE00080931A061092860659C08091860680322C
:101BF00008F056C0809186069091BB00E82FF0E077
:101C0000EA59F94F90838F5F8093860647C0809191
:101C10008606803230F4E0918606F0E0EA59F94F0A
:101C2000108285ED8093BC008091BC0084FDFCCFC8
:101C300010921A0660918606E0912006F091210626
:101C400086E696E070E00995109286062DC084E045
:101C500080931A061092640610926506E0911E06A3
:101C6000F0911F06099580916506882329F481E08B
:101C7000809365061092440690916406E92FF0E087
:101C8000EC5BF94F80818093BB009F5F909364066B
:101C90009091640680916506981710F485EC01C058
:101CA00085E88093BC000FC085EC8093BC0009C020
:101CB0001092870685ED8093BC008091BC0084FD66
:101CC000FCCF10921A06FF91EF91BF91AF919F91B7
:101CD0008F917F916F915F914F913F912F910F90D5
:101CE0000FBE0F901F90189510921A0681E08093F6
:101CF0001C0610921D0682E161E00E94E21A83E157
:101D000061E00E94E21AE9EBF0E080818E7F80833F
:101D100080818D7F808388E48093B80085E4809300
:101D2000BC000895F999FECF72BD61BDF89A80B5E7
:101D30000895F999FECF1FBA72BD61BD40BD0FB6BF
:101D4000F894FA9AF99A0FBE0895DF92EF92FF92F3
:101D50000F931F93CF93DF93EC01882777FD809536
:101D6000982F0E9419247B018C0120E030E040E490
:101D70005FE30E94122520E030E048E452E40E9434
:101D80007E230E94E623C617D70714F4DD241CC067
:101D9000DD24C801B70120E030E040EA5FE30E94A3
:101DA000122520E030E048E452E40E947E2320E047
:101DB00030E040E85FE30E9416230E94E6236C17A0
:101DC0007D0714F0DD24D3948D2D90E0DF91CF9129
:101DD0001F910F91FF90EF90DF9008956C597F4F06
:101DE0000E94A50E0895645670400E94A50E0895A5
:101DF0006093890610928B06089582E080938A068C
:101E0000109256070895AF92BF92CF92DF92EF9251
:101E1000FF920F931F93CF93DF936B01DB011A9611
:101E2000CD91DC911B978A819B8168E273E20E94CD
:101E3000EE0E892B09F480C080915607843009F09A
:101E40008CC08C819D816AEC78E00E94F30E892B16
:101E500009F483C08E819F8160E372E00E94EE0EE0
:101E6000892B09F47AC0F601118610868FEF9FEF57
:101E7000AFEFBFEF84839583A683B78381E090E0C3
:101E80009183808354C08C819D8164E971E10E94BB
:101E9000F30E892B09F450C02696EE24FF24870107
:101EA00023E0A22EB12C8881998160E372E00E9428
:101EB000EE0E892B09F440C08A819B8160E476E0B4
:101EC0000E94F30E892B69F0EE0CFF1C001F111FFE
:101ED00081E090E0A0E0B0E0E82AF92A0A2B1B2B71
:101EE0000CC08A819B8160E372E00E94F30E892B13
:101EF00019F1EE0CFF1C001F111F249691E4A91686
:101F0000B10429F0A2E0B0E0AA0EBB1ECCCF80E263
:101F100090E0F60191878087D6011496ED92FD92AC
:101F20000D931C93179781E090E08D939C9321E093
:101F300030E040E050E004C020E030E040E050E01D
:101F4000B901CA01DF91CF911F910F91FF90EF90DE
:101F5000DF90CF90BF90AF90089580915607843462
:101F600058F391CFAF92BF92CF92DF92EF92FF9250
:101F70000F931F93CF93DF936B01809156078A31A4
:101F800008F480C0DB011A96CD91DC911B97888103
:101F90009981845F914080F4FB01118610868FEF58
:101FA0009FEFAFEFBFEF84839583A683B78389E06C
:101FB00090E09183808361C08A819B8160E679E0B3
:101FC0000E94EE0E892B09F45DC02696EE24FF24B4
:101FD000870162E0A62EB12C30C0229788819981BA
:101FE000229668E572E00E94F30E892B79F18881D0
:101FF000998160EB74E00E94EE0E892B69F0EE0C83
:10200000FF1C001F111F81E090E0A0E0B0E0E82A73
:10201000F92A0A2B1B2B0CC08881998168E572E094
:102020000E94EE0E892B71F1EE0CFF1C001F111F98
:10203000A2E0B0E0AA0EBB1E24968091560795013F
:102040002F5F3F4F90E0281739073CF2C5010197F9
:1020500095958795F601918780870C971CF41186DA
:10206000108610C0D6011496ED92FD920D931C932C
:10207000179782E090E08D939C9321E030E040E060
:1020800050E004C020E030E040E050E0B901CA0177
:10209000DF91CF911F910F91FF90EF90DF90CF9044
:1020A000BF90AF900895AF92BF92CF92DF92EF9220
:1020B000FF920F931F93CF93DF936B01809156078D
:1020C0008A3108F489C0DB011A96CD91DC911B9707
:1020D000888199818052934080F4FB01118610869B
:1020E0008FEF9FEFAFEFBFEF84839583A683B78316
:1020F00089E090E0918380836AC08A819B816CEA49
:102100007DE00E94EE0E892B09F466C08C819D81D2
:102110006CEA7DE00E94EE0E892B09F45DC02896E2
:10212000EE24FF248701A3E0AA2EB12C30C0229711
:1021300088819981229666EB73E00E94F30E892BC9
:1021400079F18881998160E679E00E94EE0E892B11
:1021500069F0EE0CFF1C001F111F81E090E0A0E071
:10216000B0E0E82AF92A0A2B1B2B0CC08881998140
:102170006CEB72E00E94EE0E892B71F1EE0CFF1CED
:10218000001F111FA2E0B0E0AA0EBB1E2496809192
:10219000560795012F5F3F4F90E0281739073CF213
:1021A000C501019795958795F601918780870C97D2
:1021B0001CF41186108610C0D6011496ED92FD9283
:1021C0000D931C93179789E090E08D939C9321E0E9
:1021D00030E040E050E004C020E030E040E050E07B
:1021E000B901CA01DF91CF911F910F91FF90EF903C
:1021F000DF90CF90BF90AF9008956F927F928F92B3
:102200009F92AF92BF92CF92DF92EF92FF920F9385
:102210001F93CF93DF934B0180915607823208F4CE
:102220007AC0DB011A96CD91DC911B978A819B8144
:102230006EE571E00E94EE0E892B09F46CC036E069
:10224000A32EB12CAC0EBD1EEE24FF24870122E08C
:10225000C22ED12C37C0E5012297888199816EE981
:1022600077E00E94EE0E892B69F0EE0CFF1C001F38
:10227000111F81E090E0A0E0B0E0E82AF92A0A2BE3
:102280001B2B0DC0888199816EEE72E00E94EE0ECC
:10229000892B09F440C0EE0CFF1C001F111FD50153
:1022A0008D919C916EE571E00E94F30EE4E0F0E008
:1022B000AE0EBF1E892B11F463010FC022E030E087
:1022C000C20ED31E36010894611C711C8091560702
:1022D00090E0681679060CF4BECFC601019795957B
:1022E0008795D40119969C938E93189740972CF458
:1022F00019961C921E9218970EC0F401E482F58282
:10230000068317838AE090E09183808321E030E0A8
:1023100040E050E004C020E030E040E050E0B9018F
:10232000CA01DF91CF911F910F91FF90EF90DF9045
:10233000CF90BF90AF909F908F907F906F900895B7
:102340006F927F928F929F92AF92BF92CF92DF92C5
:10235000EF92FF920F931F93CF93DF93FB013A010C
:1023600059016801DA012D913C91848595852817E2
:10237000390724F071E0E72EF12C56C0C901880F0F
:10238000991F0284F385E02DE80FF91F8081918168
:10239000982E892E20FD06C00CE91FEF51E0E52E96
:1023A000F12C04C004E610E0EE24FF24B8016C0D0B
:1023B0007D1D892D982D0E94A50E892B19F021E0F5
:1023C00030E020C0E601CC0FDD1FB8016C0F7D1F8F
:1023D000892D982D0E94A50E892B19F022E030E05E
:1023E00011C0CC0DDD1D0C0F1D1F892D982DB801BE
:1023F0000E94A50E892B21F4EE24EA94FE2C14C031
:1024000023E030E0F5018081918101969183808302
:10241000821793074CF011821082D3018D919C9109
:10242000119701968D939C93C701DF91CF911F91D6
:102430000F91FF90EF90DF90CF90BF90AF909F9063
:102440008F907F906F9008952F923F924F925F925E
:102450006F927F928F929F92AF92BF92CF92DF92B4
:10246000EF92FF920F931F93DF93CF9300D000D092
:1024700000D0CDB7DEB71C015B01809156078D30CF
:1024800008F47EC081E090E09A8389831C821B82DD
:10249000A3E08A2E912C8C0E9D1EC1012E01089462
:1024A000411C511CA201940109E713E00E94A011F4
:1024B000892B09F065C0C101B501A20194010E94F8
:1024C000A011019709F05CC0C101B501A2019401FE
:1024D0000E94A011892B09F053C0CC24DD24760181
:1024E00066247724C4018D829E832FC0C101B5016B
:1024F000A2012D813E8109E713E00E94A0114C0149
:10250000C101B501A2012D813E810E94A01121E0EF
:102510008216910479F4892B99F5CC0CDD1CEE1C04
:10252000FF1C81E090E0A0E0B0E0C82AD92AEA2AA6
:10253000FB2A08C0892821F5019711F5CC0CDD1C78
:10254000EE1CFF1C0894611C711C8091560790E0E2
:1025500029813A81281739074CF2D50119967C92C6
:102560006E921897F501C482D582E682F78283E0E5
:1025700090E09183808321E030E040E050E004C0AF
:1025800020E030E040E050E0B901CA0126960FB6E5
:10259000F894DEBF0FBECDBFCF91DF911F910F9199
:1025A000FF90EF90DF90CF90BF90AF909F908F9073
:1025B0007F906F905F904F903F902F9008952F9253
:1025C0003F924F925F926F927F928F929F92AF92C3
:1025D000BF92CF92DF92EF92FF920F931F93DF9300
:1025E000CF93CDB7DEB728970FB6F894DEBF0FBEF6
:1025F000CDBF1C014B01DB011C968D919C911D9759
:10260000181619060CF0C4C081E090E09A83898303
:102610001A960D911C911B97F801828193816AE6AD
:102620007AE00E94EE0E892B09F4B2C082E090E0BD
:102630009A838983D80114968D919C91159769E7A7
:1026400073E00E94F30E892B09F4A2C083E090E0AE
:102650009A8389831C821B8203E0A02EB12CAC0ECE
:10266000BD1EC101B4013E010894611C711CA3018F
:1026700095010CEB11E00E94A011892B09F088C094
:10268000C101B401A30195010E94A011019709F0B5
:102690007FC0CC24DD24760144245524C501AD82BD
:1026A0009E83C3016F82988756C0C101B4014F81D8
:1026B00058852D813E810CEB11E00E94A0113C0158
:1026C000B3E04B16510461F4C101B4014F81588548
:1026D0002D813E810E94A0116816790609F058C02C
:1026E000C101B4014F8158852D813E810CEB11E071
:1026F0000E94A0115C01E3E04E16510459F4C1019F
:10270000B4014F8158852D813E810E94A011A816E9
:10271000B906F1F56114710489F4F1E0AF16B10462
:10272000B9F5CC0CDD1CEE1CFF1C81E090E0A0E0B4
:10273000B0E0C82AD92AEA2AFB2A0AC091E0691621
:10274000710431F5AB2821F5CC0CDD1CEE1CFF1C0F
:102750000894411C511C29813A81D4011C968D9109
:102760009C911D97281739070CF49FCF19965C92FE
:102770004E921897F401C482D582E682F78284E0F3
:1027800090E09183808321E030E040E050E004C09D
:1027900020E030E040E050E0B901CA0128960FB6D1
:1027A000F894DEBF0FBECDBFCF91DF911F910F9187
:1027B000FF90EF90DF90CF90BF90AF909F908F9061
:1027C0007F906F905F904F903F902F9008956F9201
:1027D0007F928F929F92AF92BF92CF92DF92EF92B1
:1027E000FF920F931F93CF93DF937B01FB01C28571
:1027F000D3858A819B816EEA7DE00E94EE0E892B53
:1028000009F474C08C819D8166ED76E00E94EE0E25
:10281000892B09F46BC0269600E010E0DD24CC245F
:10282000992488247724662483E0A82EB12C8881FB
:10283000998166EF71E00E94EE0E892B09F456C073
:102840008A819B816CED74E00E94F30E892B69F004
:1028500098014D2D5C2D692D782D872D962D01E049
:102860000E941103022F016013C08A819B8160E9DD
:1028700071E00E94F30E892BC9F198014D2D5C2D5A
:10288000692D782D872D962D01E00E941103022FCE
:10289000132FD42EC52E962E872E782E692E249691
:1028A000F1E6AF16B10429F082E090E0A80EB91E5F
:1028B000BECFC801F70104839583468357839801EF
:1028C000872D962D00E20E949202C901F701228312
:1028D000938387E090E09183808380E390E0918709
:1028E000808721E030E040E050E004C020E030E0AC
:1028F00040E050E0B901CA01DF91CF911F910F91E3
:10290000FF90EF90DF90CF90BF90AF909F908F900F
:102910007F906F9008958F929F92AF92BF92CF92C7
:10292000DF92EF92FF920F931F93CF93DF934B01B0
:10293000DB011A96CD90DC901B97F6018281938182
:1029400060E47FE10E94EE0E892B09F46EC0809155
:102950005607893308F469C0D60114968D919C916D
:10296000159760EA7FE00E94F30E892B09F45DC0A1
:10297000E6012696EE24FF24870133E0A32EB12C36
:102980008881998168E572E00E94EE0E892B09F436
:102990004CC08A819B8160E476E00E94F30E892B13
:1029A00069F0EE0CFF1C001F111F81E090E0A0E019
:1029B000B0E0E82AF92A0A2B1B2B0CC08A819B81E4
:1029C00066E272E00E94F30E892B79F1EE0CFF1C97
:1029D000001F111FA2E0B0E0AA0EBB1E2496BBE3AD
:1029E000AB16B10469F6E6E7F0E0CE0EDF1ED601C5
:1029F0008D919C9168E572E00E94EE0E892BA9F002
:102A00008CE190E0F40191878087D4011496ED92D7
:102A1000FD920D931C9317978CE090E08D939C93FF
:102A200021E030E040E050E004C020E030E040E051
:102A300050E0B901CA01DF91CF911F910F91FF9032
:102A4000EF90DF90CF90BF90AF909F908F900895C0
:102A50008F929F92AF92BF92CF92DF92EF92FF92AE
:102A60000F931F93CF93DF936B01809156078232B0
:102A700009F0B2C0DB011A96CD91DC911B978A81D7
:102A80009B8168E572E00E94EE0E892B09F4A4C0D8
:102A90008091560721E030E0281B3109220F331FB7
:102AA000C21BD30B8881998168E572E00E94EE0E0B
:102AB000892B09F491C0F601118610868FEF9FEFE4
:102AC000AFEFBFEF84839583A683B78388E090E060
:102AD0009183808369C080915607813208F469C070
:102AE000D50114968D919C91159760EA7FE00E9424
:102AF000F30E892B09F45DC0E5012696EE24FF2430
:102B0000870163E0862E912C8881998168E572E0C7
:102B10000E94EE0E892B09F44CC08A819B8160E4EF
:102B200076E00E94F30E892B69F0EE0CFF1C001F6B
:102B3000111F81E090E0A0E0B0E0E82AF92A0A2B1A
:102B40001B2B0CC08A819B8166E272E00E94F30E0F
:102B5000892B79F1EE0CFF1C001F111FA2E0B0E0E1
:102B60008A0E9B1E2496B3E28B16910469F6E6E466
:102B7000F0E0AE0EBF1ED5018D919C9168E572E02C
:102B80000E94EE0E892BA9F080E190E0F60191877A
:102B90008087D6011496ED92FD920D931C931797A2
:102BA00088E090E08D939C9321E030E040E050E09D
:102BB00004C020E030E040E050E0B901CA01DF91FC
:102BC000CF911F910F91FF90EF90DF90CF90BF902A
:102BD000AF909F908F900895F601A284B384D501A1
:102BE00012968D919C91139760E47FE10E94EE0E06
:102BF000892B09F070CFDDCFAF92BF92CF92DF92D9
:102C0000EF92FF920F931F93CF93DF936B01DB0142
:102C10001A96CD91DC911B978A819B8168E873E1BC
:102C20000E94EE0E892B09F480C0809156078430F3
:102C300009F08CC08C819D816AEC78E00E94F30ED3
:102C4000892B09F483C08E819F8160E372E00E942A
:102C5000EE0E892B09F47AC0F601118610868FEFEB
:102C60009FEFAFEFBFEF84839583A683B7838BE09D
:102C700090E09183808354C08C819D8168E873E1EA
:102C80000E94F30E892B09F450C02696EE24FF24EF
:102C90008701A3E0AA2EB12C8881998160E372E0BC
:102CA0000E94EE0E892B09F440C08A819B8160E46A
:102CB00076E00E94F30E892B69F0EE0CFF1C001FDA
:102CC000111F81E090E0A0E0B0E0E82AF92A0A2B89
:102CD0001B2B0CC08A819B8160E372E00E94F30E83
:102CE000892B19F1EE0CFF1C001F111F249691E493
:102CF000A916B10429F0A2E0B0E0AA0EBB1ECCCF09
:102D000080E290E0F60191878087D6011496ED92DB
:102D1000FD920D931C9317978BE090E08D939C93FD
:102D200021E030E040E050E004C020E030E040E04E
:102D300050E0B901CA01DF91CF911F910F91FF902F
:102D4000EF90DF90CF90BF90AF900895809156079D
:102D5000843458F391CF2F923F924F925F926F92AB
:102D60007F928F929F92AF92BF92CF92DF92EF921B
:102D7000FF920F931F93DF93CF9300D0CDB7DEB7B1
:102D80001B01FB0184859585863091052CF420E09C
:102D900030E040E050E081C035ECA32E3DE9B32E99
:102DA0003CE1C32E31E8D32E26E0422E512C9C016B
:102DB000220F331F3A83298359C0F101A285B385BD
:102DC000F2013497EA0FFB1FE080F180A40DB51DDE
:102DD0006D917C9180E090E00E9417243B014C01B2
:102DE00000E010E0C801B7010E9417247B018C01AC
:102DF0002DEC3CEC4CE45FE30E9412259B01AC01FE
:102E0000C401B3010E947A2388231CF400E010E07F
:102E100018C0C401B3012DEC3CEC4CE45FE30E940C
:102E200012259B01AC01C801B7010E947A23082F2B
:102E3000112707FD10950027110F001F11270F5FA5
:102E40001F4FC601B50123E931E040E051E00E9487
:102E5000AE255801CC24B7FCC094DC2CA626B7269E
:102E6000C826D92622E030E0420E531E89819A817D
:102E70004816590609F0A1CFF101A482B582C68295
:102E8000D78280E290E0918780878FEF9FEF9183D8
:102E9000808321E030E040E050E0B901CA010F90AA
:102EA0000F90CF91DF911F910F91FF90EF90DF90E6
:102EB000CF90BF90AF909F908F907F906F905F90DA
:102EC0004F903F902F9008950F931F93CF93DF93D0
:102ED0008C01EB018EE896E09B878A8780915607EC
:102EE0008C871D8680918A06853009F06BC0C801E9
:102EF0000E94030F611571058105910509F065C0F8
:102F0000C801BE010E94B20F6115710581059105CE
:102F100009F05BC0C801BE010E9453106115710524
:102F20008105910509F051C0C801BE010E94FD1044
:102F3000611571058105910509F047C0C801BE0101
:102F40000E9424126115710581059105F1F5C801F2
:102F5000BE010E94DF126115710581059105A9F579
:102F6000C801BE010E94E713611571058105910535
:102F700061F5C801BE010E948B14611571058105C0
:102F8000910519F5C801BE010E942815611571054A
:102F900081059105D1F4C801BE010E94FC1561159F
:102FA00071058105910589F4C801BE010E94AB1627
:102FB000611571058105910541F482E080938A06CF
:102FC0001092560720E030E002C021E030E0C90155
:102FD000DF91CF911F910F9108951F920F920FB61D
:102FE0000F9211242F933F934F935F936F937F938F
:102FF0008F939F93AF93BF93EF93FF938091890635
:103000000E94361B482F80918C0690918D06019668
:1030100090938D0680938C0680915607843618F025
:1030200085E080938A0680918A068330D1F08430CF
:1030300020F4823009F059C006C0843071F1853027
:1030400009F053C04CC0442309F04FC080918C0656
:1030500090918D068436910508F443C0109256076E
:103060001EC0413009F041C080915607E82FF0E0C2
:1030700020918C0630918D06EE0FFF1FE757F94F18
:10308000368325838F5F8093560710928D061092AA
:103090008C0684E080938A0628C04423B9F480918A
:1030A0005607E82FF0E020918C0630918D06EE0F48
:1030B000FF1FE757F94F368325838F5F80935607AD
:1030C00010928D0610928C0683E0E4CF80918C06DE
:1030D00090918D068536910540F085E0DBCF442345
:1030E00021F410928D0610928C0680918B06882315
:1030F00029F0442311F42D9A01C02D98FF91EF91EE
:10310000BF91AF919F918F917F916F915F914F91FF
:103110003F912F910F900FBE0F901F901895F8942C
:1031200092E09093B0009093B10084E68093B30056
:10313000E2EBF0E01082E08190937000789482E0FE
:1031400080938A06109256078091890660E00E945B
:10315000A31A0895EF92FF920F931F937B01109291
:10316000700083E061E00E94A31A83E060E00E94A7
:10317000E21A0027F7FC0095102F60E47FE180E061
:1031800090E0A80197010E940E26822F91E0909373
:10319000B00099E09093B1002093B30063E00E94E7
:1031A000CD25E4EBF0E08083E0811F910F91FF904B
:1031B000EF900895CB01E0EBF0E020812F7D20839C
:1031C0000E94DC190895CB01E0EBF0E02081206241
:1031D00020830E94DC190895AF92BF92CF92DF92B4
:1031E000EF92FF920F931F93CF93DF93EC017A013D
:1031F0008B01590168E270E00E94AA18CE0160E6D6
:1032000079E00E94E318CE0168E572E00E94DA18C6
:1032100080E290E08A199B0904C0EE0CFF1C001F9D
:10322000111F8A95D2F7CC24DD2417C017FF04C0E4
:10323000CE0160EB74E003C0CE0168E572E00E944D
:10324000E318CE0168E572E00E94DA18EE0CFF1C6C
:10325000001F111F0894C11CD11CCA14DB0434F3D5
:10326000DF91CF911F910F91FF90EF90DF90CF9062
:10327000BF90AF9008951F920F920FB60F92112436
:103280002F933F938F939F93AF93BF9380915B074F
:1032900090915C07A0915D07B0915E0730915F0748
:1032A0000196A11DB11D232F2D5F2D3720F02D5725
:1032B0000196A11DB11D20935F0780935B0790933A
:1032C0005C07A0935D07B0935E07809157079091CC
:1032D0005807A0915907B0915A070196A11DB11D39
:1032E0008093570790935807A0935907B0935A07B4
:1032F000BF91AF919F918F913F912F910F900FBEF2
:103300000F901F9018959B01AC017FB7F8948091A6
:10331000570790915807A0915907B0915A0766B581
:10332000A89B05C06F3F19F00196A11DB11D7FBF7D
:10333000BA2FA92F982F8827860F911DA11DB11D87
:1033400062E0880F991FAA1FBB1F6A95D1F7BC01C5
:103350002DC0FFB7F8948091570790915807A0911E
:103360005907B0915A07E6B5A89B05C0EF3F19F081
:103370000196A11DB11DFFBFBA2FA92F982F882735
:103380008E0F911DA11DB11DE2E0880F991FAA1F8C
:10339000BB1FEA95D1F7861B970B885E9340C8F256
:1033A000215030404040504068517C4F211531053C
:1033B0004105510571F60895019739F0880F991F5D
:1033C000880F991F02970197F1F70895789484B5B3
:1033D000826084BD84B5816084BD85B5826085BD11
:1033E00085B5816085BDEEE6F0E0808181608083F7
:1033F000E1E8F0E0108280818260808380818160DA
:103400008083E0E8F0E0808181608083E1EBF0E0A0
:10341000808184608083E0EBF0E080818160808344
:10342000EAE7F0E08081846080838081826080832D
:103430008081816080838081806880831092C10058
:103440000895982F8E3008F09E50977080918405D3
:103450008295880F880F807C892B80937C008091D7
:103460007A00806480937A0080917A0086FDFCCF98
:103470002091780040917900942F80E030E0282B53
:10348000392BC90108951F93CF93DF93182FEB01B8
:1034900061E00E94A31A209709F44AC0CF3FD105EA
:1034A00009F449C0E12FF0E0ED54FB4F84918330E3
:1034B000C1F0843028F4813051F08230B1F50CC075
:1034C000863019F1873049F1843079F514C084B51C
:1034D000806884BDC7BD33C084B5806284BDC8BD6B
:1034E0002EC080918000806880938000D0938900F6
:1034F000C093880024C08091800080628093800007
:10350000D0938B00C0938A001AC08091B00080686D
:103510008093B000C093B30012C08091B00080626D
:103520008093B000C093B4000AC0C038D1051CF429
:10353000812F60E002C0812F61E00E94E21ADF91DA
:10354000CF911F910895CF93DF93482F50E0CA0188
:1035500081569B4FFC01349145575B4FFA01849192
:10356000882369F190E0880F991FFC01E359FB4F14
:10357000A591B491FC01E958FB4FC591D491662304
:1035800051F42FB7F8948C91932F909589238C93B5
:10359000888189230BC0623061F42FB7F8948C9135
:1035A000932F909589238C938881832B88832FBFB9
:1035B00006C09FB7F8948C91832B8C939FBFDF91AB
:1035C000CF910895482F50E0CA018D549B4FFC01C4
:1035D0002491CA0181569B4FFC01949145575B4F42
:1035E000FA013491332309F440C0222351F12330EE
:1035F00071F0243028F42130A1F0223011F514C0EC
:103600002630B1F02730C1F02430D9F404C08091C5
:1036100080008F7703C0809180008F7D8093800031
:1036200010C084B58F7702C084B58F7D84BD09C07A
:103630008091B0008F7703C08091B0008F7D809320
:10364000B000E32FF0E0EE0FFF1FE958FB4FA5910C
:10365000B4912FB7F894662321F48C919095892327
:1036600002C08C91892B8C932FBF0895682F70E036
:10367000CB018D549B4FFC012491CB0181569B4F74
:10368000FC01449165577B4FFB019491992319F4F8
:1036900020E030E03CC0222351F1233071F024308F
:1036A00028F42130A1F0223011F514C02630B1F0F9
:1036B0002730C1F02430D9F404C0809180008F7786
:1036C00003C0809180008F7D8093800010C084B5FE
:1036D0008F7702C084B58F7D84BD09C08091B00012
:1036E0008F7703C08091B0008F7D8093B000892FC9
:1036F00090E0880F991F8F579B4FFC01A591B491C3
:103700008C9120E030E0842311F021E030E0C90109
:10371000089508951F920F920FB60F9211242F93C0
:103720003F934F938F939F93EF93FF938091C000AC
:1037300082FD1DC04091C6002091A0073091A107D5
:103740002F5F3F4F2F7330708091A2079091A30796
:103750002817390771F0E091A007F091A107E05A0E
:10376000F84F40833093A1072093A00702C08091B7
:10377000C600FF91EF919F918F914F913F912F91B3
:103780000F900FBE0F901F901895E091F407F091E5
:10379000F507E05CFF4F8191919120813181805C40
:1037A0009F4F821B930B60E470E00E94D925892B08
:1037B00011F00E94891B08951F920F920FB60F926D
:1037C00011242F933F938F939F93EF93FF93209117
:1037D000E4073091E5078091E6079091E707281705
:1037E000390731F48091C1008F7D8093C10014C0EE
:1037F000E091E607F091E707EC55F84F20818091C2
:10380000E6079091E70701968F7390709093E70712
:103810008093E6072093C600FF91EF919F918F91CF
:103820003F912F910F900FBE0F901F901895AF9260
:10383000BF92DF92EF92FF920F931F93CF93DF938C
:10384000EC017A018B01DD24403081EE580780E0E5
:10385000680780E0780711F0DD24D39491E0A92E69
:10386000B12CEC89FD89DD2069F0C50108A002C0FA
:10387000880F991F0A94E2F7808360E079E08DE376
:1038800090E005C0108260E874E88EE190E0A80145
:1038900097010E94EC252150304040405040569501
:1038A00047953795279580E12030380720F0DD20B7
:1038B00011F0DD24D6CFE889F9893083EA89FB89C4
:1038C000208319A2EE89FF89408121E030E0C901FF
:1038D0000C8C02C0880F991F0A94E2F7482B408392
:1038E000EE89FF894081C9010D8C02C0880F991FA4
:1038F0000A94E2F7482B4083EE89FF894081C90191
:103900000E8C02C0880F991F0A94E2F7482B40835F
:10391000EE89FF8980810F8C02C0220F331F0A9429
:10392000E2F7209528232083DF91CF911F910F91FB
:10393000FF90EF90DF90BF90AF900895DC011C9650
:10394000ED91FC911D97E05CFF4F81919191208159
:103950003181805C9F4F821B930B60E470E00E947A
:10396000D9250895DC011C96ED91FC911D97E05C32
:10397000FF4F20813181E054F040DF01AE5BBF4F4B
:103980008D919C9111972817390719F42FEF3FEF6C
:1039900007C08D919C91E80FF91F8081282F30E09E
:1039A000C9010895DC011C96ED91FC911D97E05C26
:1039B000FF4F20813181E054F040DF01AE5BBF4F0B
:1039C0008D919C9111972817390719F42FEF3FEF2C
:1039D00010C08D919C911197E80FF91F20818D9156
:1039E0009C91119701968F73907011969C938E9372
:1039F00030E0C9010895DC0191968C91919788235C
:103A000039F05496ED91FC915597808186FFF9CF5E
:103A100091961C920895CF93DF93EC01EE85FF857C
:103A2000E05CFF4F20813181E054F0402F5F3F4F39
:103A30002F733070DF01AE5BBF4F8D919C9111975A
:103A400028173907D1F3E05CFF4F80819181E05462
:103A5000F040E80FF91F6083EE85FF85E05CFF4FC3
:103A600031832083EE89FF89208181E090E00F8CF3
:103A700002C0880F991F0A94E2F7282B208381E067
:103A800089A3EC89FD8980818064808381E090E056
:103A9000DF91CF9108951092EB071092EA0788EE1C
:103AA00093E0A0E0B0E08093EC079093ED07A09343
:103AB000EE07B093EF078FE995E09093E9078093C5
:103AC000E80780E697E09093F5078093F40784EA8F
:103AD00097E09093F7078093F60785EC90E090933A
:103AE000F9078093F80784EC90E09093FB078093AC
:103AF000FA0780EC90E09093FD078093FC0781EC3F
:103B000090E09093FF078093FE0782EC90E0909303
:103B100001088093000886EC90E09093030880935E
:103B2000020884E08093040883E08093050887E01E
:103B30008093060885E08093070881E08093080859
:103B400008950895CF93DF930E94E6190E94A11D66
:103B50000E94F204C5ECDBE10E949F0A2097E1F38A
:103B60000E94C51BF9CFCF92DF92EF92FF920F9385
:103B70001F93CF93DF937C016B018A01C0E0D0E0FB
:103B80000FC0D6016D916D01D701ED91FC910190AF
:103B9000F081E02DC7010995C80FD91F01501040D1
:103BA0000115110571F7CE01DF91CF911F910F9192
:103BB000FF90EF90DF90CF900895EF92FF920F93D8
:103BC0001F93CF93DF937C018B01C0E0D0E0F8011D
:103BD0000F5F1F4F6491662359F0D701ED91FC915F
:103BE0000190F081E02DC7010995C80FD91FEFCFD3
:103BF000CE01DF91CF911F910F91FF90EF9008952B
:103C0000DC01ED91FC910190F081E02D0995089582
:103C1000EF92FF920F931F938C01DC01ED91FC91C9
:103C20000190F081E02D6DE009957C01D801ED91C6
:103C3000FC910190F081E02DC8016AE009959C019A
:103C40002E0D3F1DC9011F910F91FF90EF90089518
:103C5000EF92FF920F931F937C010E94DD1D8C0158
:103C6000C7010E94081E9C01200F311FC9011F912E
:103C70000F91FF90EF900895CF93DF93EC016115C2
:103C8000710519F420E030E00FC0DB010D90002039
:103C9000E9F71197A61BB70BE881F9810280F38140
:103CA000E02DAD0109959C01C901DF91CF910895E7
:103CB0004F925F927F928F929F92AF92BF92CF92DC
:103CC000DF92EF92FF920F931F93DF93CF93CDB7C5
:103CD000DEB7A1970FB6F894DEBF0FBECDBF2C01A3
:103CE000742ECB01223008F42AE019A231E2C32E4F
:103CF000D12CCC0EDD1E822E9924AA24BB24672D44
:103D0000752FA50194010E94EC2579018A01C80153
:103D1000B701A50194010E94AE25472D461B0894CA
:103D2000C108D1084A3014F4405D01C0495CF60175
:103D30004083E114F1040105110521F07E2C5F2D73
:103D4000C801DDCFC201B6010E943C1EA1960FB68C
:103D5000F894DEBF0FBECDBFCF91DF911F910F91C1
:103D6000FF90EF90DF90CF90BF90AF909F908F909B
:103D70007F905F904F900895DC012115310541F44B
:103D8000ED91FC910190F081E02D642F099508954B
:103D90000E94581E0895CF92DF92EF92FF920F93E8
:103DA0001F936C017B019A0100E010E0B801A701AC
:103DB0000E94BC1E8C01C6010E94081E080F191F1C
:103DC000C8011F910F91FF90EF90DF90CF90089561
:103DD000EF92FF920F931F939A01E62EFF2400E0CB
:103DE00010E0B801A7010E94BC1E1F910F91FF9027
:103DF000EF900895CF92DF92EF92FF920F931F936F
:103E0000CF93DF93EC016A017B012115310541F469
:103E1000E881F9810190F081E02D642F09951FC0A0
:103E20002A303105D1F477FF17C0E881F98101907C
:103E3000F081E02D6DE209958C0144275527BA01E8
:103E40004C195D096E097F09CE012AE00E94581EB7
:103E50009801280F391F04C02AE00E94581E9C01B7
:103E6000C901DF91CF911F910F91FF90EF90DF90EB
:103E7000CF9008950E943C1E08957F928F929F924A
:103E8000AF92BF92CF92DF92EF92FF920F931F9368
:103E9000CF93DF934C017A018B01722ECB01BA01D3
:103EA000A80197010E947525882321F0C40167ECC1
:103EB00074E021C0C0E0D0E057016801E894D7F871
:103EC000C601B5012FEF3FEF4FE75FE70E94752571
:103ED000882351F4C601B5012FEF3FEF4FE75FE7AD
:103EE0000E947A23181614F0C1E0D0E0219739F02F
:103EF000C4016BEC74E00E943C1EEC0193C0C8014D
:103F0000B7012FEF3FEF4FE75FE40E94C924181677
:103F100054F0C801B7012FEF3FEF4FE75FEC0E946D
:103F20007A23882324F4C4016FEC74E0E4CFC80141
:103F3000B70120E030E040E050E00E947A2387FDA6
:103F400003C0C0E0D0E00EC0D401ED91FC9101901F
:103F5000F081E02DC4016DE20995EC0117FB10958D
:103F600017F9109520E030E040E05FE3DD240BC05E
:103F7000CA01B90120E030E040E251E40E947E2312
:103F80009B01AC01D394D71498F3C801B7010E94E8
:103F900016235B016C010E94EB237B018C01C401A1
:103FA000B801A7012AE030E00E94BC1EC80FD91F4B
:103FB000772039F0C40163ED74E00E943C1EC80F05
:103FC000D91FC801B7010E9417249B01AC01C6018B
:103FD000B5010E94152324C020E030E040E251E406
:103FE0000E9412257B018C010E94E6235B016C017B
:103FF000CC24B7FCC094DC2CC401B601A5012AE096
:1040000030E00E94FA1EC80FD91FC601B5010E94F8
:1040100019249B01AC01C801B7010E9415237A94B1
:104020007720D1F6CE01DF91CF911F910F91FF90B4
:10403000EF90DF90CF90BF90AF909F908F907F9048
:1040400008950E943D1F0895EF92FF920F931F93D2
:104050007C010E943C1E8C01C7010E94081E080FB3
:10406000191FC8011F910F91FF90EF900895EF92D3
:10407000FF920F931F937B018C01611571058105E0
:10408000910529F420E030E040E050E00BC00E94B0
:10409000E303A80197010E940E26AC01CB01DA01CF
:1040A0009C01AD01B901CA011F910F91FF90EF90E2
:1040B0000895EF92FF920F931F937B018C0162177B
:1040C00073078407950764F4261B370B480B590BBD
:1040D000CA01B9010E943720E60EF71E081F191FFA
:1040E000B701C8011F910F91FF90EF9008950F93B2
:1040F0001F93CF93DF93EC018B016F5F7F4F88811C
:1041000099810E943422009711F480E005C09983C0
:1041100088831B830A8381E0DF91CF911F910F91E8
:104120000895CF93DF93EC0188819981892B29F041
:104130008A819B818617970760F4CE010E947720C1
:10414000882341F08C819D81892B19F4E881F981C4
:10415000108281E0DF91CF910895CF93DF93EC013E
:1041600088819981009711F00E949C211982188200
:104170001D821C821B821A82DF91CF910895EF92DB
:10418000FF920F931F93CF93DF93EC017B018A0182
:10419000BA010E949120882321F4CE010E94AD2013
:1041A00007C01D830C8388819981B7010E94FA039F
:1041B000CE01DF91CF911F910F91FF90EF90089565
:1041C000CF93DF93EC01198218821B821A821D8221
:1041D0001C826115710551F0DB010D900020E9F79B
:1041E0001197A61BB70BAD010E94BF20DF91CF91A5
:1041F0000895FC01808191810E949C2108950F9374
:104200001F93CF93DF93BC018230910510F462E0DD
:1042100070E0E0910C08F0910D08A0E0B0E040E003
:1042200050E024C08081918186179707D0F08617CF
:10423000970771F482819381109729F013969C93CC
:104240008E9312972CC090930D0880930C0827C072
:104250004115510519F08417950718F4EF018D01E8
:10426000AC01DF01828193819C01F9013097D1F685
:1042700041155105F9F0CA01861B970B8430910551
:1042800080F48A819B810115110521F0F801938347
:10429000828304C090930D0880930C08FE0132962F
:1042A00045C0FE01E80FF91F61937193029799834E
:1042B00088833CC080910A0890910B08892B41F4B7
:1042C000809187059091880590930B0880930A0848
:1042D0004091890550918A054115510541F44DB72A
:1042E0005EB78091850590918605481B590B2091FA
:1042F0000A0830910B0824173507B0F4CA01821B55
:10430000930B8617970780F0AB014E5F5F4F8417C2
:10431000950750F0420F531F50930B0840930A0823
:10432000F9016193719302C0E0E0F0E0CF01DF9109
:10433000CF911F910F910895CF93DF939C01009728
:1043400009F48FC0EC0122971B821A8260910C083D
:1043500070910D086115710581F488819981820F32
:10436000931F20910A0830910B082817390739F557
:10437000D0930B08C0930A0874C0DB0140E050E002
:10438000AC17BD0708F1BB83AA83FE0121913191CF
:10439000E20FF31FAE17BF0779F48D919C9111972F
:1043A000280F391F2E5F3F4F3983288312968D9136
:1043B0009C9113979B838A834115510571F4D09387
:1043C0000D08C0930C084DC012968D919C911397C7
:1043D000AD01009711F0DC01D3CFDA011396DC9325
:1043E000CE931297FA0121913191E20FF31FCE176C
:1043F000DF0769F488819981280F391F2E5F3F4FAD
:10440000FA01318320838A819B8193838283E0E058
:10441000F0E0DB0112968D919C911397009719F0B3
:10442000BC01FD01F6CFAB014E5F5F4FDB018D910B
:104430009C91840F951F20910A0830910B08281732
:10444000390779F4309729F410920D0810920C086E
:1044500002C0138212824250504050930B08409386
:104460000A08DF91CF9108956F927F928F929F9269
:10447000AF92BF92CF92DF92EF92FF920F931F9372
:10448000CF93DF938C01009729F4CB010E94FF208A
:104490008C01BBC08EEFE82E8FEFF82EE00EF11EE0
:1044A0004801860E971E8E149F0408F4ACC0D701F5
:1044B0004D915C91119746175707B8F0453051055B
:1044C00008F4A3C0CA0104978617970708F49DC093
:1044D00042505040461B570BF401419351936D934A
:1044E0007C93CF010E949C2190C05B01A41AB50A65
:1044F0003801640E751EA0910C08B0910D08CC24F3
:10450000DD24E0E0F0E047C0A615B705A9F5CD91A0
:10451000DC911197CE0102968A159B0568F1CE01B8
:104520008A199B09029612962C91129713963C9128
:10453000059758F0F40122833383CA19DB09D1832C
:10454000C083D7016D937C9309C04E5F5F4F4C0FC2
:104550005D1FF70151834083C901FC01C114D104DF
:1045600031F0D6011396FC93EE9312974EC0F09360
:104570000D08E0930C0849C08D919C911197E817A4
:10458000F90708F4FC016D0112968C9112971396AD
:104590009C919C01D901109709F0B6CF80910A082F
:1045A00090910B0886159705E9F4E617F707D0F404
:1045B0002091890530918A052115310541F42DB7E7
:1045C0003EB78091850590918605281B390B821690
:1045D0009306C8F490920B0880920A08F701718341
:1045E000608313C0CB010E94FF20EC01009759F0BB
:1045F000D7014D915C91B8010E94F103C8010E945E
:104600009C218E0102C000E010E0C801DF91CF9133
:104610001F910F91FF90EF90DF90CF90BF90AF90E0
:104620009F908F907F906F9008955058BB27AA2736
:104630000ED075C166D130F06BD120F031F49F3FC0
:1046400011F41EF45BC10EF4E095E7FB51C1E92FB4
:1046500077D180F3BA17620773078407950718F0BC
:1046600071F49EF58FC10EF4E0950B2EBA2FA02D9C
:104670000B01B90190010C01CA01A0011124FF270F
:10468000591B99F0593F50F4503E68F11A16F0400A
:10469000A22F232F342F4427585FF3CF4695379509
:1046A0002795A795F0405395C9F77EF41F16BA0BCE
:1046B000620B730B840BBAF09150A1F0FF0FBB1F7C
:1046C000661F771F881FC2F70EC0BA0F621F731FC5
:1046D000841F48F4879577956795B795F7959E3F22
:1046E00008F0B3CF9395880F08F09927EE0F9795B0
:1046F00087950895D9D008F481E008950CD00FC1B2
:1047000007D140F0FED030F021F45F3F19F0F0C047
:10471000511139C1F3C014D198F39923C9F355232A
:10472000B1F3951B550BBB27AA27621773078407A4
:1047300038F09F5F5F4F220F331F441FAA1FA9F35A
:1047400033D00E2E3AF0E0E830D091505040E6954C
:10475000001CCAF729D0FE2F27D0660F771F881FAD
:10476000BB1F261737074807AB07B0E809F0BB0B9C
:10477000802DBF01FF2793585F4F2AF09E3F5105C0
:1047800068F0B6C000C15F3FECF3983EDCF386955D
:1047900077956795B795F7959F5FC9F7880F911D36
:1047A0009695879597F90895E1E0660F771F881F22
:1047B000BB1F621773078407BA0720F0621B730BD5
:1047C000840BBA0BEE1F88F7E095089504D0689427
:1047D000B111D9C00895BCD088F09F5790F0B92F7F
:1047E0009927B751A0F0D1F0660F771F881F991F46
:1047F0001AF0BA95C9F712C0B13081F0C3D0B1E058
:104800000895C0C0672F782F8827B85F39F0B93F67
:10481000CCF3869577956795B395D9F73EF4909547
:104820008095709561957F4F8F4F9F4F0895E894C5
:1048300009C097FB3EF490958095709561957F4FE8
:104840008F4F9F4F9923A9F0F92F96E9BB27939596
:10485000F695879577956795B795F111F8CFFAF4A6
:10486000BB0F11F460FF1BC06F5F7F4F8F4F9F4FD7
:1048700016C0882311F096E911C0772321F09EE835
:10488000872F762F05C0662371F096E8862F70E09B
:1048900060E02AF09A95660F771F881FDAF7880F75
:1048A0009695879597F90895990F0008550FAA0BCB
:1048B000E0E8FEEF16161706E807F907C0F0121633
:1048C0001306E407F50798F0621B730B840B950B36
:1048D00039F40A2661F0232B242B252B21F408958B
:1048E0000A2609F4A140A6958FEF811D811D089528
:1048F00097F99F6780E870E060E008959FEF80EC93
:10490000089500240A941616170618060906089535
:1049100000240A9412161306140605060895092E9B
:104920000394000C11F4882352F0BB0F40F4BF2B0A
:1049300011F460FF04C06F5F7F4F8F4F9F4F08954A
:1049400057FD9058440F551F59F05F3F71F0479540
:10495000880F97FB991F61F09F3F79F08795089525
:10496000121613061406551FF2CF4695F1DF08C044
:10497000161617061806991FF1CF86957105610561
:1049800008940895E894BB2766277727CB0197F909
:1049900008958ADF08F48FEF08950EF0AAC0AECF15
:1049A0006894A6CFD5DFC8F39923D1F3C6F3DF937C
:1049B000CF931F930F93FF92C92FDD2788232AF0EF
:1049C0002197660F771F881FDAF720E030E040E874
:1049D0005FEB9FE3883920F0803E30F021968F779F
:1049E00025DEE8E6F0E003C021DEE5E9F0E091D065
:1049F0008B01BE01EC01FB2E6F5771097595771F76
:104A0000880B990B16DF28E132E741E35FE316D00C
:104A1000AF2D9801AE01FF900F911F91CF91DF91C3
:104A200016DE7DCF0BD07BCF6CDF28F071DF18F066
:104A3000952309F05DCF62CF1124A5CF81DFA0F3CC
:104A4000959FD1F3950F50E0551F629FF001729F23
:104A5000BB27F00DB11D639FAA27F00DB11DAA1F42
:104A6000649F6627B00DA11D661F829F2227B00D8F
:104A7000A11D621F739FB00DA11D621F839FA00D1A
:104A8000611D221F749F3327A00D611D231F849F6A
:104A9000600D211D822F762F6A2F11249F575040C1
:104AA0008AF0E1F088234AF0EE0FFF1FBB1F661F5C
:104AB000771F881F91505040A9F79E3F510570F015
:104AC00017CF61CF5F3FECF3983EDCF38695779587
:104AD0006795B795F795E7959F5FC1F7FE2B880F10
:104AE000911D9695879597F90895DEDE880B990BB1
:104AF00008959F3F49F0915028F4869577956795E2
:104B0000B7959F5F80389F4F880F9695879597F947
:104B10000895DF93CF931F930F93FF92EF92DF924D
:104B20007B018C01689405C0DA2EEF0187DFFE015E
:104B3000E894A5912591359145915591AEF3EF01FA
:104B400086DDFE019701A801DA9479F7DF90EF90F6
:104B5000FF900F911F91CF91DF910895629FD00137
:104B6000739FF001829FE00DF11D649FE00DF11D28
:104B7000929FF00D839FF00D749FF00D659FF00DD7
:104B80009927729FB00DE11DF91F639FB00DE11DC4
:104B9000F91FBD01CF0111240895991B79E004C0CC
:104BA000991F961708F0961B881F7A95C9F780956C
:104BB000089597FB092E07260AD077FD04D049D027
:104BC00006D000201AF4709561957F4F0895F6F78E
:104BD000909581959F4F0895A1E21A2EAA1BBB1BA9
:104BE000FD010DC0AA1FBB1FEE1FFF1FA217B307B9
:104BF000E407F50720F0A21BB30BE40BF50B661FCF
:104C0000771F881F991F1A9469F760957095809592
:104C100090959B01AC01BD01CF01089597FB092E32
:104C200005260ED057FD04D0D7DF0AD0001C38F47B
:104C300050954095309521953F4F4F4F5F4F0895C8
:104C4000F6F790958095709561957F4F8F4F9F4FA8
:104C50000895AA1BBB1B51E107C0AA1FBB1FA617C3
:104C6000B70710F0A61BB70B881F991F5A95A9F715
:104C700080959095BC01CD010895EE0FFF1F059022
:104C8000F491E02D09942F923F924F925F926F9290
:104C90007F928F929F92AF92BF92CF92DF92EF92CC
:104CA000FF920F931F93CF93DF93CDB7DEB7CA1B4D
:104CB000DB0B0FB6F894DEBF0FBECDBF09942A8878
:104CC000398848885F846E847D848C849B84AA8420
:104CD000B984C884DF80EE80FD800C811B81AA81AD
:104CE000B981CE0FD11D0FB6F894DEBF0FBECDBF78
:104CF000ED01089514E0CEECD4E004C0FE010E9462
:0E4D00003F262296C03DD107C9F7F894FFCF99
:104D0E00005B324A005B48002B2D2D2D2D2D2D2DB5
:104D1E002D2D2D2D2D2D2D2D2D2D2D2D2D2D2D2DB5
:104D2E002D2D2D2D2D2D2D2D2D2D2D2D2D2D2B00D4
:104D3E007C20205341494E54434F4E203230313463
:104D4E00204861636B20746865204261646765204A
:104D5E002031303020207C007C202020202020207C
:104D6E00202020436865636B696E6720426164672B
:104D7E0065202020202020202020202020207C00A4
:104D8E007C202020205341494E54434F4E20323038
:104D9E003134204261646765204368616C6C656ED6
:104DAE006765202020207C007C2020312920426154
:104DBE00646765204368616C6C656E676520313091
:104DCE0030202020202020202020202020207C0089
:104DDE007C20203229204261646765204368616C23
:104DEE006C656E6765203230302020202020202018
:104DFE002020202020207C007C202033292042618E
:104E0E00646765204368616C6C656E67652033303E
:104E1E0030202020202020202020202020207C0038
:104E2E007C20203429204261646765204368616CD0
:104E3E006C656E67652034303020202020202020C5
:104E4E002020202020207C007C202035292042613B
:104E5E00646765204368616C6C656E6765203530EC
:104E6E0030202020202020202020202020207C00E8
:104E7E007C202020202020202020202020202020C8
:104E8E002020202020202020202020202020202014
:104E9E002020202020207C007C2020392920596FC2
:104EAE00757220436F6465732020202020202020FF
:104EBE0020202020202020202020202020207C00A8
:104ECE007C20203029204372656469747320202071
:104EDE0020202020202020202020202020202020C4
:104EEE002020202020207C007C205341494E54431A
:104EFE004F4E2032303134204861636B2074686528
:104F0E002042616467652020353030207C007C2093
:104F1E0020436F64653A20002B2D2D2D2D2D2D2D28
:104F2E002D2D2D2D2D2D2D2D2D2D2D2D2D2D2D2DA3
:104F3E002D2D2D2D2D2D2D2D2D2D2D2D2B007C2080
:104F4E005341494E54434F4E203230313420486144
:104F5E00636B20746865204261646765202034307D
:104F6E0030207C007C205341494E54434F4E20321A
:104F7E00303134204861636B20746865204261646F
:104F8E0067652020333030207C007C205341494E11
:104F9E0054434F4E2032303134204861636B2074BD
:104FAE0068652042616467652020323030207C00C5
:104FBE007C20202020202020205772697465696E85
:104FCE006720454550524F4D2E2E2E2E2E2020203E
:104FDE00202020207C007C202020202020202056F5
:104FEE006572696679696E6720454550524F4D2E40
:104FFE002E2E2E2E2020202020207C007C202020D3
:10500E00202020202020202020202054454D503AC2
:10501E002000202A4620202020202020207C007CDA
:10502E0020202020202020202020202020205365FA
:10503E006E64696E672E2E2E2E2E202020202020AC
:10504E002020207C007C20202020202020202020BA
:10505E002052656365697665696E672E2E2E2E2E3B
:10506E002020202020202020207C007C202020209A
:10507E0020202020202052656365697665696E6761
:10508E002049522E2E2E2E2E202020202020207C15
:10509E00007265736574007C205341494E54434F32
:1050AE004E2032303134204861636B2074686520A5
:1050BE00426164676520436F64657320207C0048FD
:1050CE00423430303A20006E616E00696E66006FB9
:1050DE007666002E000100000000E819460E000161
:1050EE000100020003000400370042001400120009
:1050FE005500640000006D007B007C007600760099
:10510E007000760072007D0065007A007B00010061
:10511E0016001300110013000A0004000500000021
:10512E00120000000B0011000700400026005C007A
:10513E0051002C0051004E00470026002000430075
:10514E004500450059004300200044005F00230045
:10515E0058004700560048002B005B004B004400EF
:10516E004600100019001F0012001E0063006D00A3
:10517E00030005000D0063006300670000000300DC
:10518E00130037000180000E08000000000000C769
:10519E000B960B4F0B580B6D0B7E0B000000000B8C
:0C51AE001DB31D9E1CD21CB21CFB1C007B
:00000001FF
