:100000000C9461000C947E000C947E000C947E0095
:100010000C947E000C947E000C947E000C947E0068
:100020000C947E000C947E000C947E000C947E0058
:100030000C947E000C947E000C947E000C947E0048
:100040000C94E6000C947E000C947E000C947E00D0
:100050000C947E000C947E000C947E000C947E0028
:100060000C947E000C947E00000000002400270009
:100070002A0000000000250028002B0000000000DE
:1000800023002600290004040404040404040202DA
:100090000202020203030303030301020408102007
:1000A0004080010204081020010204081020000012
:1000B0000007000201000003040600000000000029
:1000C000000011241FBECFEFD8E0DEBFCDBF11E08E
:1000D000A0E0B1E0E2E9F5E002C005900D92A030A9
:1000E000B107D9F711E0A0E0B1E001C01D92AA303C
:1000F000B107E1F70E94B6020C94C7020C9400000D
:1001000086E060E070E00E94C20189E060E070E09B
:100110000E94C2018AE060E070E00E94C2018BE0B0
:1001200060E070E00E94C20168EE73E080E090E061
:100130000E942E0186E06FEF70E00E94C20189E00C
:100140006FEF70E00E94C2018AE06FEF70E00E94E2
:10015000C2018BE06FEF70E00E94C20168EE73E0B5
:1001600080E090E00E942E010895CF93DF9386E017
:100170006FEF70E00E94C20189E06FEF70E00E94B3
:10018000C201C0E0D0E080E091E0BE0140E00E940A
:10019000DA002196C630D105B1F78AE06FEF70E042
:1001A0000E94C2018BE06FEF70E00E94C201DF91FC
:1001B000CF910895F999FECF1FBA72BD61BD40BDC0
:1001C0000FB6F894FA9AF99A0FBE08951F920F92FB
:1001D0000FB60F9211242F933F938F939F93AF935A
:1001E000BF938091050190910601A0910701B09104
:1001F0000801309109010196A11DB11D232F2D5F2A
:100200002D3720F02D570196A11DB11D2093090116
:100210008093050190930601A0930701B093080114
:100220008091010190910201A0910301B09104011C
:100230000196A11DB11D8093010190930201A0932D
:100240000301B0930401BF91AF919F918F913F91B2
:100250002F910F900FBE0F901F9018959B01AC012E
:100260007FB7F8948091010190910201A091030160
:10027000B091040166B5A89B05C06F3F19F00196C7
:10028000A11DB11D7FBFBA2FA92F982F8827860FD8
:10029000911DA11DB11D62E0880F991FAA1FBB1FF0
:1002A0006A95D1F7BC012DC0FFB7F8948091010188
:1002B00090910201A0910301B0910401E6B5A89BC1
:1002C00005C0EF3F19F00196A11DB11DFFBFBA2F68
:1002D000A92F982F88278E0F911DA11DB11DE2E037
:1002E000880F991FAA1FBB1FEA95D1F7861B970B92
:1002F000885E9340C8F221503040404050406851E1
:100300007C4F211531054105510571F6089578940A
:1003100084B5826084BD84B5816084BD85B582600A
:1003200085BD85B5816085BDEEE6F0E080818160A8
:100330008083E1E8F0E010828081826080838081A8
:1003400081608083E0E8F0E0808181608083E1EB80
:10035000F0E0808184608083E0EBF0E08081816068
:100360008083EAE7F0E0808184608083808182601E
:100370008083808181608083808180688083109207
:10038000C10008951F93CF93DF93182FEB0161E015
:100390000E942202209709F44AC0CF3FD10509F4F8
:1003A00049C0E12FF0E0E255FF4F84918330C1F066
:1003B000843028F4813051F08230B1F50CC08630A1
:1003C00019F1873049F1843079F514C084B580681B
:1003D00084BDC7BD33C084B5806284BDC8BD2EC096
:1003E00080918000806880938000D0938900C093C2
:1003F000880024C080918000806280938000D09328
:100400008B00C0938A001AC08091B00080688093EE
:10041000B000C093B30012C08091B000806280939E
:10042000B000C093B4000AC0C038D1051CF4812FBD
:1004300060E002C0812F61E00E946102DF91CF91F4
:100440001F910895CF93DF93482F50E0CA0186563D
:100450009F4FFC0134914A575F4FFA0184918823E2
:1004600069F190E0880F991FFC01E859FF4FA591B1
:10047000B491FC01EE58FF4FC591D491662351F41D
:100480002FB7F8948C91932F909589238C93888122
:1004900089230BC0623061F42FB7F8948C91932FAD
:1004A000909589238C938881832B88832FBF06C0E6
:1004B0009FB7F8948C91832B8C939FBFDF91CF9142
:1004C0000895482F50E0CA0182559F4FFC012491A6
:1004D000CA0186569F4FFC0194914A575F4FFA011B
:1004E0003491332309F440C0222351F1233071F0B9
:1004F000243028F42130A1F0223011F514C0263028
:10050000B1F02730C1F02430D9F404C080918000CC
:100510008F7703C0809180008F7D8093800010C012
:1005200084B58F7702C084B58F7D84BD09C080916A
:10053000B0008F7703C08091B0008F7D8093B000B2
:10054000E32FF0E0EE0FFF1FEE58FF4FA591B4919F
:100550002FB7F894662321F48C919095892302C0DB
:100560008C91892B8C932FBF08950895CF93DF939F
:100570000E9487010E94B5020E94B500C0E0D0E051
:100580000E9480002097E1F30E940000F9CFF894C8
:02059000FFCF9B
:00000001FF
